:020000040800F2
:100000002805002045010008490100084B010008AF
:100010004D0100084F0100085101000800000000D8
:100020000000000000000000000000005301000874
:1000300055010008000000005701000859010008A0
:100040005B0100085B0100085B0100085B01000820
:100050005B0100085B0100085B0100085B01000810
:100060005B0100085B0100085B0100085B01000800
:100070005B0100085B0100085B0100085B010008F0
:100080005B0100085B0100085B0100085B010008E0
:100090005B0100085B0100085B0100085B010008D0
:1000A0005B0100085B0100085B0100085B010008C0
:1000B0005B0100084D0D00085B0100085B010008B2
:1000C0005B0100085B0100085B0100085B010008A0
:1000D0005B010008650D00085B0100085B0100087A
:1000E0005B0100085B0100085B0100085B01000880
:1000F0005B0100085B0100085B0100085B01000870
:100100005B0100085B0100085B0100085B0100085F
:100110005B0100085B0100085B0100085B0100084F
:100120005B0100085B0100085B0100085B0100083F
:10013000DFF80CD000F08EF9004800477512000877
:100140002805002005480047FEE7FEE7FEE7FEE73A
:10015000FEE7FEE7FEE7FEE7FEE7FEE73101000807
:100160002DE9FE4F81EA030404F0004421F0004130
:1001700000944FF0000B23F0004350EA01045ED0DE
:1001800052EA03045BD0C3F30A54C1F30A552C446A
:10019000A4F2F3340194A0FB0254C1F3130141F41F
:1001A0008011C3F3130343F4801301FB024400FBEB
:1001B000034E840A970A44EA815447EA8357A4FB12
:1001C000076802958D0A05FB07854FEA932C04FB0F
:1001D0000C542705029D4FEA065847EA1637B5EB3F
:1001E00008056EEB070C870E920E47EA811742EA6C
:1001F0008312A7FB0201B6EB0B0164EB00042B0D8D
:1002000043EA0C335E1844EB1C50DA465146E7FBD8
:100210000201C5F313044FEA0B3343EA14534FEAC8
:100220000432019C43EA0603A4F10C040294009CEE
:10023000CDE900B400F0C0F803B0BDE8F08F0020B5
:100240000146F9E796230022114600F078B800F045
:10025000004230F000400AD0C10D01F56071C0F3DA
:10026000160042EA0151C2084007114370470020BE
:100270000146704730B5041E71F1000404DB4FF0F5
:100280000044404264EB0101141E73F1000405DBDD
:100290001C464FF00043524263EB04038B4208BFFD
:1002A000824230BD30B5041E71F1000404DB4FF012
:1002B0000044404264EB0101141E73F1000405DBAD
:1002C0001C464FF00043524263EB0403994208BFBF
:1002D000904230BD01F0004330B421F0004150EABB
:1002E000010206D00A0DA2F56072C1F31301002AC3
:1002F00002DC30BC00207047440F44EAC104C10056
:10030000E01830BC00EBC25000F010B8202A04DB2B
:10031000203A21FA02F00021704721FA02F3D0407E
:10032000C2F1200291400843194670470029A8BF36
:100330007047401C490008BF20F00100704710B40E
:10034000B0FA80FC00FA0CF050EA010404BF10BCC3
:10035000704749B1CCF1200421FA04F411FA0CF1F0
:1003600018BF012121430843A3EB0C01CB1D4FEA29
:1003700000614FEA102042BF002010BC704700EB24
:10038000C35010440029A4BF10BC7047401C490052
:1003900008BF20F0010010BC704710B5141E73F1A7
:1003A000000408DA401C41F1000192185B411A4335
:1003B00001D120F0010010BD2DE9F04D92469B4681
:1003C00011B1B1FA81F202E0B0FA80F22032904627
:1003D00000F052F804460F4640EA0A0041EA0B01D9
:1003E00053465A46084313D0114653EA010019D028
:1003F000C8F140025046FFF789FF05460E465046B9
:100400005946424600F038F8084305D0012004E080
:1004100020463946BDE8F08D0020054346EAE076E7
:100420002C4337430A986305E40AA0EB0800002236
:10043000FD0A44EA47540A3002D500200146E9E7A4
:10044000010510196941DDE9084500196941BDE858
:10045000F04DA2E7064C074D06E0E06840F00103CE
:1004600094E8070098471034AC42F6D3FFF764FED7
:10047000EC1400080C150008202A04DB203A00FACE
:1004800002F1002070479140C2F1200320FA03F3EB
:10049000194390407047000010B504E000F0ACF93B
:1004A0001E2000F023FE00F065FA0028F6D00E486A
:1004B00000F0F7F90C4800684FF47A714843000DDA
:1004C0000A49086008484068C821484300EB80009A
:1004D000C0F355204FF4FA71C1EB90200449086035
:1004E0000248006880B210BD480000205000002083
:1004F0005400002000B5012000F01BF8012000F09E
:1005000018F8012000F015F8012000F012F8012081
:1005100000F00FF800BD00B5012000F00AF801203E
:1005200000F007F8012000F004F8012000F001F8C5
:1005300000BD014604E0002000E0401C0228FCD37E
:100540000A1EA1F10101F6D1704700002DE9F0412A
:1005500005460E462F46B04600241DE008F08000F8
:1005600028B101221146264800F0FEFE04E00022D8
:100570000121234800F0F8FE4FEA48604FEA106876
:10058000002202211E4800F0EFFE012202211C4839
:1005900000F0EAFE601CC4B2082CDFDB00241EE081
:1005A00007F0800028B101221146154800F0DCFE5A
:1005B00004E000220121124800F0D6FE7806070E62
:1005C000002202210E4800F0CFFE012000F08EFD37
:1005D000012202210A4800F0C7FE601CC4B2082CA8
:1005E000DEDB01222021064800F0BEFE012000F0E3
:1005F0007DFD00222021024800F0B6FEBDE8F0811A
:10060000000C01401CB500BF2148806940F0080083
:100610001F49886100BF00BF0846806940F008009C
:10062000886100BF00BF0846806940F0080088610B
:1006300000BF00BF0846806940F00800886100BF25
:100640000220012100230A46CDE90010114800F0E4
:1006500097FE0220012100230A46CDE90010014641
:100660000C4800F08DFE0220012100230A46CDE94E
:1006700000102021074800F083FE02200121002302
:100680000A46CDE900104021024800F079FE1CBD69
:1006900000100240000C014010B5FFF7FDFE2B4991
:1006A00008602B48006809680844294908602948FF
:1006B0000078142814D100202649087024480068C6
:1006C000152190FBF1F024490860084600680A21D2
:1006D00090FBF1F02049086000201D49086004E00B
:1006E0001C480078401C1B4908701C4800881C49A5
:1006F0000968884224D100201849088016480068FB
:100700000A2190FBF1F017490880134800680A217C
:1007100090FBF1F201FB12001349088013481149C4
:100720000988405C1249087010480F490988405CEC
:1007300010490870084601780D480078FFF706FF59
:1007400006480088401C0549088010BD04000020B0
:100750000000002010000020080000202A000020D7
:10076000380000202E0000202C0000201500002062
:10077000130000201400002010B500F06DFA0820CE
:1007800000F0C8FA00F02CFA082000F0C3FA00F0DC
:1007900077FA082000F0BEFA00F036FA082000F0E0
:1007A000B9FA10BD1CB500BF1148806940F00400C3
:1007B0000F49886100BF00BF0846806940F004000F
:1007C000886100BF0220012100230A46CDE9001004
:1007D0004102084800F0D4FD0220012100230A460E
:1007E000CDE900100146034800F0CAFD1CBD000021
:1007F000001002400008014010B5FFF7D3FF42F699
:100800001E3000F087FAFFF7B7FF702000F018FBEA
:1008100000F0C0F9E12000F013FB00F0BBF9082064
:1008200000F00EFB00F0B6F9002000F009FB00F02C
:10083000B1F900F07AFA4FF4FA7000F057FC2AE0B0
:1008400000F0D0F8642000F051FC42F61E3000F0B9
:1008500061FAFFF791FF702000F0F2FA00F09AF9C8
:10086000E12000F0EDFA00F095F9082000F0E8FA38
:1008700000F090F9002000F0E3FA00F08BF900F0AE
:1008800054FA601CC4B20A2C01DB002010BD4FF4E6
:10089000FA7000F02BFC00F06DF80028D0D0012099
:1008A000F4E770B586B005460020059004900390EB
:1008B0000290019000900024002600F079F84B206F
:1008C00000F014FC00BF09E040F2E45000F022FA0E
:1008D0003046711C8EB2642800DB05E000F057F84A
:1008E00000F080008028EFD000BFFFF745FF7120A7
:1008F00000F0A6FA00F04EF900F076FA059000F04C
:10090000D3F900F071FA049000F0CEF900F06CFA1F
:10091000039000F0C9F900F067FA029000F0C4F902
:1009200000F062FA019000F0BFF900F05DFA00906B
:1009300000F0D5F900F0F9F99DF810002043040209
:100940009DF80C00204304029DF80800044324098C
:100950002C6000249DF80800204304029DF8040048
:10096000204304029DF800000443C4F313046C60A8
:1009700006B070BD10B5002400F009F8044604F07C
:100980006800082801D1012010BD0020FCE710B547
:10099000FFF7F2FE712000F053FA00F0FBF800F0D0
:1009A00023FA044600F09BF900F0BFF9204610BD81
:1009B00010B5FFF7E1FE702000F042FA00F0EAF80F
:1009C000AC2000F03DFA00F0E5F8332000F038FAF2
:1009D00000F0E0F8002000F033FA00F0DBF800F05F
:1009E000A4F910BD10B5FFF7C7FE702000F028FA7B
:1009F00000F0D0F8BA2000F023FA00F0CBF800F0B5
:100A000094F910BD10B500F02FF8044634B1012C54
:100A100008D0022C0AD0032C10D10BE0102000F0DB
:100A2000B5F80FE0202000F0B1F80BE0302000F026
:100A3000ADF807E0402000F0A9F803E0002000F046
:100A4000A5F800BF00BF10BD10B50648006820F033
:100A50000F0004490860472140F2F31000F074FBD6
:100A600010BD0000040801402DE9F04700240A21D0
:100A7000042000F06BFA3849088008460088FFF728
:100A8000E1FB8146FFF7E3FB07464FF06632334B4D
:100A9000FFF766FB0546FFF71DFC31490860084675
:100AA0000068FFF7D4FB05462E4A2F4BFFF7E2FB09
:100AB00001D204244CE02A480068FFF7C8FB054631
:100AC0002A4A2B4BFFF7D6FB0BD225480068FFF7CD
:100AD000BEFB0546274A284BFFF7E4FB01D2002462
:100AE00036E01F480068FFF7B2FB0546234A244B57
:100AF000FFF7C0FB0BD21A480068FFF7A8FB0546BA
:100B00001A4A1B4BFFF7CEFB01D2012420E0144808
:100B10000068FFF79CFB05461A4A1B4BFFF7AAFB30
:100B20000BD20F480068FFF792FB0546134A144B9F
:100B3000FFF7B8FB01D202240AE009480068FFF77A
:100B400086FB05460F4A104BFFF7ACFB00D203248F
:100B50002046BDE8F08700005800002066664A3F46
:100B60005C000020B81E85EB51B89E3FFA7E6ABC3F
:100B70007493883F7B14AE47E17AB43F39B4C876AA
:100B8000BE9F9A3FCDCCCCCCCCCC08404FF080411E
:100B90004863704710B5002400F036F800F048F8BC
:100BA000082000F0B7F800F01BF8082000F0B2F8B9
:100BB00001E0601C84B24FF48061084800F0CCFB77
:100BC00008B1642CF5DB642C01D1002010BD00F0CD
:100BD0001BF8082000F09EF80120F7E7000801400C
:100BE0001CB50220012100230A46CDE90010014670
:100BF000044800F0C5FB01220221024800F0B4FBCA
:100C00001CBD0000000801401CB50220012100238A
:100C10000A46CDE900100146044800F0B1FB00226D
:100C20000221024800F0A0FB1CBD000000080140AA
:100C30001CB50020012103460246CDE900108902BF
:100C4000044800F09DFB00224FF48061014800F051
:100C50008BFB1CBD000801401CB5022001210023B4
:100C60000A46CDE900104102044800F089FB012248
:100C70009102024800F078FB1CBD00000008014012
:100C80001CB50220012100230A46CDE900104102D3
:100C9000044800F075FB00224FF48061014800F029
:100CA00063FB1CBD0008014010B5FFF7ADFF082035
:100CB00000F030F8FFF7E4FF082000F02BF8FFF712
:100CC0008FFF082000F026F8FFF79EFF082000F0B5
:100CD00021F8FFF7ADFF082000F01CF810BD10B59B
:100CE000FFF792FF082000F015F8FFF7B5FF082086
:100CF00000F010F8FFF774FF082000F00BF8FFF782
:100D000083FF082000F006F8FFF7BAFF082000F084
:100D100001F810BD10B50446A41E03E00120FFF742
:100D200008FC641E002CF9D110BD10B5FFF7A8FF18
:100D30000820FFF7EFFFFFF753FF0820FFF7EAFF58
:100D4000FFF78AFF0820FFF7E5FF10BD04480068A1
:100D50000348006820F00100014908607047000066
:100D6000100400401D49096801F0200111B31B491E
:100D7000091D0968C8B21A49098801F40041C9B9B6
:100D80001749098801F4804161B10A2803D0002184
:100D9000134A118020E01249098841F40041104AA9
:100DA000118019E00D2806D10D49098841F48041D0
:100DB0000B4A118010E00A490988C1F30D01094A64
:100DC000505407490988491C054A11801146098871
:100DD000C72901DD00211180704700000038014063
:100DE000440000206000002070B50024FFF70CFFD5
:100DF000FFF71EFF0820FFF78DFF002514E0FFF727
:100E0000EFFEFFF777FB00264FF480610B4800F000
:100E1000A3FA00B1012646EA4400C4B2FFF7F4FE8B
:100E2000FFF768FB681CC5B2082DE8DBFFF700FF81
:100E30000820FFF76FFF204670BD0000000801404A
:100E40002DE9F041044625468027002613E0FFF7F0
:100E5000DBFEFFF760FB07EA050010B1FFF7FCFEC1
:100E600001E0FFF70DFFFFF7BBFEFFF754FB68063D
:100E7000050E701CC6B2082EE9DBFFF7C5FE082080
:100E8000FFF748FFFFF7D4FE0820FFF743FFBDE858
:100E9000F08102E008C8121F08C1002AFAD1704789
:100EA0007047002001E001C1121F002AFBD17047EA
:100EB00030B50A290EDA036901EB41050724AC407D
:100EC000A3430361036901EB41050724AC402343BD
:100ED000036111E0C368A1F10A0404EB440507248F
:100EE000AC40A343C360C368A1F10A0404EB44050A
:100EF0000724AC402343C36030BD000010B5044656
:100F0000072221461048FFF7D3FF0F48343000680E
:100F100020F01F000C493431086008460068204367
:100F2000086009480830006840F48000064908312C
:100F3000086000BF0448006800F002000028F9D0F3
:100F400001484C30006810BD002401402DE9F041FB
:100F500007460C460025002608E03846FFF7CEFF7E
:100F60000544052000F0C2F8701CC6B2A642F4DBAE
:100F7000B5FBF4F0BDE8F0811CB500BF4D488069B9
:100F800040F004004B49886100BF00BF08468069FB
:100F900040F40070886100BF00BF0846806940F0DF
:100FA0000400886100BF012000900023032210216B
:100FB0000190414800F0E4F90220012100230A4693
:100FC000CDE9001020213C4800F0DAF9012220216F
:100FD000394800F0C9F93748C06840F4C060354965
:100FE000C8600846C06820F4C060C8600846406811
:100FF00020F4404048600846406840F400404860A3
:101000002E48006820F470202C49086008460068CB
:1010100008600846006820F480700860081D0068B9
:1010200020F00200091D08600846006820F46020D6
:1010300008600846006840F46020086008460068C0
:1010400040F4801008600846006820F400600860E2
:101050001A482830006820F47000184928310860C8
:101060000846006808601548001D006840F001004F
:101070001249091D08600846006840F00800086031
:1010800000BF0E48001D006800F008000028F8D1DD
:101090000A48001D006840F004000849091D086066
:1010A00000BF0648001D006800F004000028F8D1C9
:1010B0001CBD000000100240000801400424014053
:1010C0004FF0E021096941F004014FF0E022116185
:1010D000054908601146096941F0010111616FF08D
:1010E00070415161704700003C00002010B504467B
:1010F0004FF47A7104FB01F000F002F810BD00001B
:1011000070B5034600224FF0E02675690D4E366833
:1011100003FB06F44FF0E026B16910E04FF0E02643
:10112000B06988420BD0884202D20E1A324402E0E3
:101130002E1A0E4432440146A24200D300E0EDE7ED
:1011400000BF70BD3C0000207CB505460E46012462
:1011500000BF3848806940F004003649886100BF0C
:1011600000BF0846C06940F00100C86100BF01200F
:10117000032100230222CDE9001001462E4800F091
:10118000FFF8A007C5628662406C40F40040A107EA
:101190004864022C14DC08468069611EC900091DE0
:1011A00006228A401043A107886108468069611EB3
:1011B000C900C91C01228A401043A107886118E0B8
:1011C000042C16DC4FF08040C069E11EC900091DE7
:1011D00006228A4010434FF08041C8610846C0692A
:1011E000E11EC900C91C01228A4010434FF0804112
:1011F000C8614FF08040006A611E8A000121914061
:1012000008434FF0804108620846006A611E890069
:10121000491C01228A4010434FF080410862084671
:10122000006840F0800008600846006840F0010057
:1012300008607CBD00100240000801401CB500BFE2
:101240000A48806940F010000849886100BF012009
:1012500000900023024641030190054800F090F8F9
:1012600001225103024800F07FF81CBD001002402B
:1012700000100140092000F001F9FFF7DFFF4820CE
:10128000FFF71EFFFFF7BEF9FFF776FEFFF7DCFB67
:1012900009E000224FF40051034800F065F8FFF721
:1012A000FBF9FFF7AFFBF4E70010014010B5024671
:1012B00000210020264B1B6843F48033244C23601C
:1012C0000AE000BF224B1B6803F400331BB1B1F5E9
:1012D000004F00D904E0491C4FF6F0739942F0D357
:1012E00000BF4FF6F073994201D301202FE04FF475
:1012F0008063174C6360921E23465B6843EA824317
:10130000636023465B6843F4803363601023114CB1
:10131000236023461B6843F0020323600C4B1B68C9
:1013200043F080730A4C236000BF094B1B685B0EBF
:10133000002BFAD0064B5B6843F00203044C636059
:1013400000BF034B5B68C3F38103022BF9D110BDCF
:10135000001002400020024002469068084008B198
:10136000012070470020FCE702F001031BB1036974
:101370000B43036103E0036943EA014303617047E0
:101380002DE9F04F0E461D46DDE909C40021002776
:101390008846002300BF64E04FF0010909FA01F715
:1013A00006EA0708B8455BD10023012A01D0022ACA
:1013B0000AD10CF0030305F0010943EA8903A2F105
:1013C000010943EAC90318E0BAB90CB9042314E0CF
:1013D0000823D0F80C904FF0010A0AFA01FA29EA22
:1013E0000A09C0F80C90D0F80CA004F0010909FA21
:1013F00001F94AEA090AC0F80CA0072916D8D0F862
:1014000000904FEA810B4FF00F0A0AFA0BFA29EA13
:101410000A09C0F80090D0F800904FEA810A03FA58
:101420000AFA49EA0A09C0F8009019E0D0F80490D5
:10143000A1F1080A4FEA8A0B4FF00F0A0AFA0BFAD9
:1014400029EA0A09C0F80490D0F80490A1F1080A2A
:101450004FEA8A0A03FA0AFA49EA0A09C0F804902C
:10146000491C102998D3BDE8F08F00004A0A5202A7
:101470000243014B1A60704708ED00E010B50446C6
:10148000002017490861C860142048610020886165
:10149000C8610846006840F00100086008464068DE
:1014A000104908400E494860084600680E49084047
:1014B0000B4908600846006820F480200860084650
:1014C000406820F4FE0048604FF41F00886020460A
:1014D000FFF7ECFE00214FF00060FFF7C7FF10BDE3
:1014E000001002400000FFF8FFFFF6FE0C15000898
:1014F0000000002060000000920E00086C1500083B
:1015000060000020C8040000A20E000800000000D7
:1015100000000000000000000000000000000000CB
:1015200000C0F9A4B0999282F88090FF009096AF25
:10153000C089C78EC17F00000000000000000000CD
:101540000000000064000000000000000000000037
:10155000000000000000000000000000000000008B
:0C1560000000000000000000000000007F
:0400000508000131BD
:00000001FF
