:020000040800F2
:100000003805002045010008490100084B0100089F
:100010004D0100084F0100085101000800000000D8
:100020000000000000000000000000005301000874
:1000300055010008000000005701000859010008A0
:100040005B0100085B0100085B0100085B01000820
:100050005B0100085B0100085B0100085B01000810
:100060005B0100085B0100085B0100085B01000800
:100070005B0100085B0100085B0100085B010008F0
:100080005B0100085B0100085B0100085B010008E0
:100090005B0100085B0100085B0100085B010008D0
:1000A0005B0100085B0100085B0100085B010008C0
:1000B0005B0100085B0100085B0100085B010008B0
:1000C0005B0100085B0100085B0100085B010008A0
:1000D0005B010008490B00085B0100085B01000898
:1000E0005B0100085B0100085B0100085B01000880
:1000F0005B0100085B0100085B0100085B01000870
:100100005B0100085B0100085B0100085B0100085F
:100110005B0100085B0100085B0100085B0100084F
:100120005B0100085B0100085B0100085B0100083F
:10013000DFF80CD000F05EF9004800479D0E000883
:100140003805002005480047FEE7FEE7FEE7FEE72A
:10015000FEE7FEE7FEE7FEE7FEE7FEE73101000807
:100160002DE9FE4F81EA030404F0004421F0004130
:1001700000944FF0000B23F0004350EA01045ED0DE
:1001800052EA03045BD0C3F30A54C1F30A552C446A
:10019000A4F2F3340194A0FB0254C1F3130141F41F
:1001A0008011C3F3130343F4801301FB024400FBEB
:1001B000034E840A970A44EA815447EA8357A4FB12
:1001C000076802958D0A05FB07854FEA932C04FB0F
:1001D0000C542705029D4FEA065847EA1637B5EB3F
:1001E00008056EEB070C870E920E47EA811742EA6C
:1001F0008312A7FB0201B6EB0B0164EB00042B0D8D
:1002000043EA0C335E1844EB1C50DA465146E7FBD8
:100210000201C5F313044FEA0B3343EA14534FEAC8
:100220000432019C43EA0603A4F10C040294009CEE
:10023000CDE900B400F090F803B0BDE8F08F0020E5
:100240000146F9E796230022114600F048B800F075
:10025000004230F000400AD0C10D01F56071C0F3DA
:10026000160042EA0151C2084007114370470020BE
:100270000146704701F0004330B421F0004150EADC
:10028000010206D00A0DA2F56072C1F31301002A23
:1002900002DC30BC00207047440F44EAC104C100B6
:1002A000E01830BC00EBC25000F010B8202A04DB8C
:1002B000203A21FA02F00021704721FA02F3D040DF
:1002C000C2F1200291400843194670470029A8BF97
:1002D0007047401C490008BF20F00100704710B46F
:1002E000B0FA80FC00FA0CF050EA010404BF10BC24
:1002F000704749B1CCF1200421FA04F411FA0CF151
:1003000018BF012121430843A3EB0C01CB1D4FEA89
:1003100000614FEA102042BF002010BC704700EB84
:10032000C35010440029A4BF10BC7047401C4900B2
:1003300008BF20F0010010BC704710B5141E73F107
:10034000000408DA401C41F1000192185B411A4395
:1003500001D120F0010010BD2DE9F04D92469B46E1
:1003600011B1B1FA81F202E0B0FA80F22032904687
:1003700000F052F804460F4640EA0A0041EA0B0139
:1003800053465A46084313D0114653EA010019D088
:10039000C8F140025046FFF789FF05460E46504619
:1003A0005946424600F038F8084305D0012004E0E1
:1003B00020463946BDE8F08D0020054346EAE07648
:1003C0002C4337430A986305E40AA0EB0800002297
:1003D000FD0A44EA47540A3002D500200146E9E705
:1003E000010510196941DDE9084500196941BDE8B9
:1003F000F04DA2E7064C074D06E0E06840F001032F
:1004000094E8070098471034AC42F6D3FFF794FE07
:100410003412000854120008202A04DB203A00FAA3
:1004200002F1002070479140C2F1200320FA03F34B
:10043000194390407047000010B504E000F03AF90D
:100440001E2000F0E1FC00F0F3F90028F6D00E4881
:1004500000F085F90C4800684FF47A714843000DAC
:100460000A49086008484068C821484300EB8000FA
:10047000C0F355204FF4FA71C1EB90200449086095
:100480000248006880B210BD0C000020140000205B
:100490001800002000B5012000F01BF8012000F03A
:1004A00018F8012000F015F8012000F012F80120E2
:1004B00000F00FF800BD00B5012000F00AF801209F
:1004C00000F007F8012000F004F8012000F001F826
:1004D00000BD014604E0002000E0401C0228FCD3DF
:1004E0000A1EA1F10101F6D1704700002DE9F0418B
:1004F00005460E462F46B04600241DE008F0800059
:1005000028B101221146264800F0D2FD04E0002265
:100510000121234800F0CCFD4FEA48604FEA106803
:10052000002202211E4800F0C3FD012202211C48C6
:1005300000F0BEFD601CC4B2082CDFDB00241EE00E
:1005400007F0800028B101221146154800F0B0FDE7
:1005500004E000220121124800F0AAFD7806070EEF
:10056000002202210E4800F0A3FD012000F04CFC07
:10057000012202210A4800F09BFD601CC4B2082C35
:10058000DEDB01222021064800F092FD012000F070
:100590003BFC00222021024800F08AFDBDE8F081EA
:1005A000000C01401CB500BF2148806940F00800E4
:1005B0001F49886100BF00BF0846806940F00800FD
:1005C000886100BF00BF0846806940F0080088616C
:1005D00000BF00BF0846806940F00800886100BF86
:1005E0000220012100230A46CDE90010114800F045
:1005F0006BFD0220012100230A46CDE900100146CF
:100600000C4800F061FD0220012100230A46CDE9DB
:1006100000102021074800F057FD0220012100238F
:100620000A46CDE900104021024800F04DFD1CBDF6
:1006300000100240000C014010B500F00BFA082039
:1006400000F066FA00F0CEF9082000F061FA00F040
:1006500015FA082000F05CFA00F0D6F9082000F046
:1006600057FA10BD1CB500BF1048806940F0040067
:100670000E49886100BF00BF0846806940F0040051
:10068000886100BF0220012100230A46CDE9001045
:100690004102074800F018FD0220012100230A460C
:1006A000CDE90010024800F00FFD1CBD0010024013
:1006B0000008014010B5FFF7D5FF42F61E3000F0EC
:1006C00027FAFFF7B9FF702000F0ACFA00F064F9E8
:1006D000E12000F0A7FA00F05FF9082000F0A2FA8C
:1006E00000F05AF9002000F09DFA00F055F900F0F2
:1006F0001AFA4FF4FA7000F087FB2AE000F0D0F805
:10070000642000F081FB42F61E3000F001FAFFF792
:1007100093FF702000F086FA00F03EF9E12000F02F
:1007200081FA00F039F9082000F07CFA00F034F981
:10073000002000F077FA00F02FF900F0F4F9601CC7
:10074000C4B20A2C01DB002010BD4FF4FA7000F097
:100750005BFB00F06DF80028D0D00120F4E770B505
:1007600086B0054600200590049003900290019009
:1007700000900024002600F079F84B2000F044FBA4
:1007800000BF09E040F2E45000F0C2F93046711CAD
:100790008EB2642800DB05E000F057F800F080001E
:1007A0008028EFD000BFFFF747FF712000F03AFA32
:1007B00000F0F2F800F00AFA059000F073F900F08A
:1007C00005FA049000F06EF900F000FA039000F0D2
:1007D00069F900F0FBF9029000F064F900F0F6F915
:1007E000019000F05FF900F0F1F9009000F075F968
:1007F00000F099F99DF81000204304029DF80C00C8
:10080000204304029DF80800044324092C600024BE
:100810009DF80800204304029DF8040020430402D0
:100820009DF800000443C4F313046C6006B070BD6F
:1008300010B5002400F009F8044604F06800082808
:1008400001D1012010BD0020FCE710B5FFF7F4FE38
:10085000712000F0E7F900F09FF800F0B7F90446C6
:1008600000F03BF900F05FF9204610BD10B5FFF72E
:10087000E3FE702000F0D6F900F08EF8AC2000F016
:10088000D1F900F089F8332000F0CCF900F084F8B9
:10089000002000F0C7F900F07FF800F044F910BD27
:1008A00010B5FFF7C9FE702000F0BCF900F074F835
:1008B000BA2000F0B7F900F06FF800F034F910BD7D
:1008C0001CB500BF3248806940F00400304988619F
:1008D00000BF00BF0846806940F00400886100BF87
:1008E00000BF0846806940F00400886100BF00BF77
:1008F0000846806940F00400886100BF00BF0846D8
:10090000806940F00400886100BF00BF084680692C
:1009100040F00400886100BF0220012100230A4644
:10092000CDE900101B4800F0CFFB0220012100237D
:100930000A46CDE900100146164800F0C5FB02202A
:10094000012100230A46CDE900100421114800F0DE
:10095000BBFB0220012100230A46CDE90010202123
:100960000C4800F0B1FB0220012100230A46CDE92A
:1009700000100821074800F0A7FB022001210023F6
:100980000A46CDE900101021024800F09DFB1CBD75
:10099000001002400008014010B5002400F034F8B7
:1009A00000F044F8082000F0B3F800F01BF808202D
:1009B00000F0AEF801E0601C84B24FF4806108489A
:1009C00000F06EFB08B1642CF5DB642C01D1002033
:1009D00010BD00F019F8082000F09AF80120F7E7A0
:1009E000000801401CB50220012100230A46CDE980
:1009F0000010044800F068FB01221146014800F095
:100A000057FB1CBD000801401CB50220012100233A
:100A10000A46CDE90010044800F056FB00220121EF
:100A2000014800F045FB1CBD000801401CB500203A
:100A3000012103460246CDE900108902044800F076
:100A400043FB00224FF48061014800F031FB1CBDE4
:100A5000000801401CB50220012100230A46CDE90F
:100A600000104102044800F02FFB012291020248CD
:100A700000F01EFB1CBD0000000801401CB5022058
:100A8000012100230A46CDE900104102044800F08C
:100A90001BFB00224FF48061014800F009FB1CBDE4
:100AA0000008014010B5FFF7AFFF082000F030F854
:100AB000FFF7E4FF082000F02BF8FFF793FF082072
:100AC00000F026F8FFF7A0FF082000F021F8FFF75C
:100AD000ADFF082000F01CF810BD10B5FFF794FF23
:100AE000082000F015F8FFF7B5FF082000F010F817
:100AF000FFF778FF082000F00BF8FFF785FF0820CC
:100B000000F006F8FFF7BAFF082000F001F810BD6A
:100B100010B50446A41E03E00120FFF7DAFC641EB2
:100B2000002CF9D110BD10B5FFF7A8FF0820FFF782
:100B3000EFFFFFF757FF0820FFF7EAFFFFF78AFFF5
:100B40000820FFF7E5FF10BD1D49096801F02001ED
:100B500011B31B49091D0968C8B21A49098801F473
:100B60000041C9B91749098801F4804161B10A28D7
:100B700003D00021134A118020E01249098841F472
:100B80000041104A118019E00D2806D10D4909884D
:100B900041F480410B4A118010E00A490988C1F3F1
:100BA0000D01094A505407490988491C054A11801A
:100BB00011460988C72901DD002111807047000016
:100BC00000380140680000206C00002070B500244F
:100BD000FFF71AFFFFF72AFF0820FFF799FF00250C
:100BE00014E0FFF7FFFEFFF755FC00264FF480618D
:100BF0000B4800F055FA00B1012646EA4400C4B2A1
:100C0000FFF702FFFFF746FC681CC5B2082DE8DBC2
:100C1000FFF70CFF0820FFF77BFF204670BD0000A8
:100C2000000801402DE9F0410446254680270026B2
:100C300013E0FFF7E9FEFFF73EFC07EA050010B1FD
:100C4000FFF708FF01E0FFF719FFFFF7CBFEFFF703
:100C500032FC6806050E701CC6B2082EE9DBFFF7F1
:100C6000D3FE0820FFF754FFFFF7E0FE0820FFF750
:100C70004FFFBDE8F08102E008C8121F08C1002A3A
:100C8000FAD170477047002001E001C1121F002A0D
:100C9000FBD170471CB500BF4D48806940F004008F
:100CA0004B49886100BF00BF0846806940F400706E
:100CB000886100BF00BF0846806940F00400886179
:100CC00000BF012000900023032210210190414821
:100CD00000F0FAF90220012100230A46CDE90010B4
:100CE00020213C4800F0F0F901222021394800F091
:100CF000DFF93748C06840F4C0603549C86008462D
:100D0000C06820F4C060C8600846406820F44040D5
:100D100048600846406840F4004048602E4800683B
:100D200020F470202C4908600846006808600846D6
:100D3000006820F480700860081D006820F0020040
:100D4000091D08600846006820F460200860084615
:100D5000006840F4602008600846006840F4801095
:100D600008600846006820F4006008601A482830CF
:100D7000006820F4700018492831086008460068AF
:100D800008601548001D006840F001001249091D67
:100D900008600846006840F00800086000BF0E4880
:100DA000001D006800F008000028F8D10A48001D66
:100DB000006840F004000849091D086000BF0648AB
:100DC000001D006800F004000028F8D11CBD0000E0
:100DD0000010024000080140042401404FF0E021CF
:100DE000096941F004014FF0E022116105490860F2
:100DF0001146096941F0010111616FF070415161C3
:100E0000704700006000002010B504464FF47A716E
:100E100004FB01F000F002F810BD000070B50346BD
:100E200000224FF0E02675690D4E366803FB06F48C
:100E30004FF0E026B16910E04FF0E026B06988423B
:100E40000BD0884202D20E1A324402E02E1A0E440F
:100E500032440146A24200D300E0EDE700BF70BD7E
:100E6000600000201CB500BF0A48806940F01000F7
:100E70000849886100BF0120009000230246410319
:100E80000190054800F020F901225103024800F0CA
:100E90000FF91CBD001002400010014000BF0020EF
:100EA0004449088044490880092000F08BF9FFF785
:100EB000D9FF4820FFF792FFFFF774FBFFF7EAFE28
:100EC000FFF7FEFC002240213C4800F0F1F86FE003
:100ED00000224FF400513A4800F0EAF839480088FF
:100EE000FFF7B0F98046FFF7B2F906464FF06632D9
:100EF000354BFFF735F90446FFF7BCF93349086075
:100F0000FFF79AFA324908603248006809680844D5
:100F10003049086030480078142814D100202E4948
:100F200008702C480068152190FBF1F02B490860EF
:100F3000084600680A2190FBF1F02849086000206B
:100F40002449086004E024480078401C22490870C5
:100F50002348008823490968884224D10020204979
:100F600008801E4800680A2190FBF1F012490880B1
:100F70001A4800680A2190FBF1F201FB12000D49AA
:100F8000088019480C490988405C184908701648BF
:100F900008490988405C16490870084601781348DA
:100FA0000078FFF7A3FA0E480088401C0C4908801F
:100FB0008EE700005600002058000020000C014081
:100FC000001001400000002066664A3F0400002037
:100FD000200000201C000020280000202400002009
:100FE0004C000020500000202A000020410000207A
:100FF0004200002010B5024600210020264B1B684D
:1010000043F48033244C23600AE000BF224B1B686A
:1010100003F400331BB1B1F5004F00D904E0491CC3
:101020004FF6F0739942F0D300BF4FF6F073994238
:1010300001D301202FE04FF48063174C6360921EB0
:1010400023465B6843EA8243636023465B6843F45C
:10105000803363601023114C236023461B6843F0E8
:10106000020323600C4B1B6843F080730A4C23601F
:1010700000BF094B1B685B0E002BFAD0064B5B6868
:1010800043F00203044C636000BF034B5B68C3F38F
:101090008103022BF9D110BD001002400020024054
:1010A00002469068084008B1012070470020FCE724
:1010B00002F001031BB103690B43036103E0036901
:1010C00043EA0143036170472DE9F04F0E461D4688
:1010D000DDE909C4002100278846002300BF64E041
:1010E0004FF0010909FA01F706EA0708B8455BD194
:1010F0000023012A01D0022A0AD10CF0030305F0D3
:10110000010943EA8903A2F1010943EAC90318E08E
:10111000BAB90CB9042314E00823D0F80C904FF0AE
:10112000010A0AFA01FA29EA0A09C0F80C90D0F873
:101130000CA004F0010909FA01F94AEA090AC0F809
:101140000CA0072916D8D0F800904FEA810B4FF079
:101150000F0A0AFA0BFA29EA0A09C0F80090D0F837
:1011600000904FEA810A03FA0AFA49EA0A09C0F82C
:10117000009019E0D0F80490A1F1080A4FEA8A0B18
:101180004FF00F0A0AFA0BFA29EA0A09C0F804908C
:10119000D0F80490A1F1080A4FEA8A0A03FA0AFA81
:1011A00049EA0A09C0F80490491C102998D3BDE8FF
:1011B000F08F00004A0A52020243014B1A60704746
:1011C00008ED00E010B50446002017490861C8602A
:1011D0001420486100208861C8610846006840F01A
:1011E0000100086008464068104908400E49486000
:1011F000084600680E4908400B4908600846006828
:1012000020F4802008600846406820F4FE00486012
:101210004FF41F0088602046FFF7ECFE00214FF0DE
:101220000060FFF7C7FF10BD001002400000FFF88C
:10123000FFFFF6FE54120008000000206C000000C2
:10124000760C0008C01200086C000020CC040000DE
:10125000860C0008000000000000000000000000F4
:10126000000000000000000000000000000000007E
:101270000000000000000000000000000000C0F9B5
:10128000A4B0999282F88090FF009096AFC089C771
:101290008EC17F0000000000000000000000000080
:1012A00000000000640000000000000000000000DA
:1012B000000000000000000000000000000000002E
:0400000508000131BD
:00000001FF
