:020000040800F2
:100000004005002045010008490100084B01000897
:100010004D0100084F0100085101000800000000D8
:100020000000000000000000000000005301000874
:1000300055010008000000005701000859010008A0
:100040005B0100085B0100085B0100085B01000820
:100050005B0100085B0100085B0100085B01000810
:100060005B0100085B0100085B0100085B01000800
:100070005B0100085B0100085B0100085B010008F0
:100080005B0100085B0100085B0100085B010008E0
:100090005B0100085B0100085B0100085B010008D0
:1000A0005B0100085B0100085B0100085B010008C0
:1000B0005B010008B50E00085B0100085B01000849
:1000C0005B0100085B0100085B0100085B010008A0
:1000D0005B010008CD0E00085B0100085B01000811
:1000E0005B0100085B0100085B0100085B01000880
:1000F0005B0100085B0100085B0100085B01000870
:100100005B0100085B0100085B0100085B0100085F
:100110005B0100085B0100085B0100085B0100084F
:100120005B0100085B0100085B0100085B0100083F
:10013000DFF80CD000F08EF900480047F9130008F2
:100140004005002005480047FEE7FEE7FEE7FEE722
:10015000FEE7FEE7FEE7FEE7FEE7FEE73101000807
:100160002DE9FE4F81EA030404F0004421F0004130
:1001700000944FF0000B23F0004350EA01045ED0DE
:1001800052EA03045BD0C3F30A54C1F30A552C446A
:10019000A4F2F3340194A0FB0254C1F3130141F41F
:1001A0008011C3F3130343F4801301FB024400FBEB
:1001B000034E840A970A44EA815447EA8357A4FB12
:1001C000076802958D0A05FB07854FEA932C04FB0F
:1001D0000C542705029D4FEA065847EA1637B5EB3F
:1001E00008056EEB070C870E920E47EA811742EA6C
:1001F0008312A7FB0201B6EB0B0164EB00042B0D8D
:1002000043EA0C335E1844EB1C50DA465146E7FBD8
:100210000201C5F313044FEA0B3343EA14534FEAC8
:100220000432019C43EA0603A4F10C040294009CEE
:10023000CDE900B400F0C0F803B0BDE8F08F0020B5
:100240000146F9E796230022114600F078B800F045
:10025000004230F000400AD0C10D01F56071C0F3DA
:10026000160042EA0151C2084007114370470020BE
:100270000146704730B5041E71F1000404DB4FF0F5
:100280000044404264EB0101141E73F1000405DBDD
:100290001C464FF00043524263EB04038B4208BFFD
:1002A000824230BD30B5041E71F1000404DB4FF012
:1002B0000044404264EB0101141E73F1000405DBAD
:1002C0001C464FF00043524263EB0403994208BFBF
:1002D000904230BD01F0004330B421F0004150EABB
:1002E000010206D00A0DA2F56072C1F31301002AC3
:1002F00002DC30BC00207047440F44EAC104C10056
:10030000E01830BC00EBC25000F010B8202A04DB2B
:10031000203A21FA02F00021704721FA02F3D0407E
:10032000C2F1200291400843194670470029A8BF36
:100330007047401C490008BF20F00100704710B40E
:10034000B0FA80FC00FA0CF050EA010404BF10BCC3
:10035000704749B1CCF1200421FA04F411FA0CF1F0
:1003600018BF012121430843A3EB0C01CB1D4FEA29
:1003700000614FEA102042BF002010BC704700EB24
:10038000C35010440029A4BF10BC7047401C490052
:1003900008BF20F0010010BC704710B5141E73F1A7
:1003A000000408DA401C41F1000192185B411A4335
:1003B00001D120F0010010BD2DE9F04D92469B4681
:1003C00011B1B1FA81F202E0B0FA80F22032904627
:1003D00000F052F804460F4640EA0A0041EA0B01D9
:1003E00053465A46084313D0114653EA010019D028
:1003F000C8F140025046FFF789FF05460E465046B9
:100400005946424600F038F8084305D0012004E080
:1004100020463946BDE8F08D0020054346EAE076E7
:100420002C4337430A986305E40AA0EB0800002236
:10043000FD0A44EA47540A3002D500200146E9E7A4
:10044000010510196941DDE9084500196941BDE858
:10045000F04DA2E7064C074D06E0E06840F00103CE
:1004600094E8070098471034AC42F6D3FFF764FED7
:100470007016000890160008202A04DB203A00FAC3
:1004800002F1002070479140C2F1200320FA03F3EB
:10049000194390407047000010B504E000F09EF949
:1004A0001E2000F0E5FE00F057FA0028F6D00E48B6
:1004B00000F0E9F90C4800684FF47A714843000DE8
:1004C0000A49086008484068C821484300EB80009A
:1004D000C0F355204FF4FA71C1EB90200449086035
:1004E0000248006880B210BD480000205000002083
:1004F0005400002000B5012000F01BF8012000F09E
:1005000018F8012000F015F8012000F012F8012081
:1005100000F00FF800BD00B5012000F00AF801203E
:1005200000F007F8012000F004F8012000F001F8C5
:1005300000BD014604E0002000E0401C0228FCD37E
:100540000A1EA1F10101F6D1704700002DE9F0412A
:1005500005460E462F46B04600241DE008F08000F8
:1005600028B101221146274800F0C0FF04E0002214
:100570000121244800F0BAFF4FEA48604FEA1068B2
:10058000002202211F4800F0B1FF012202211D4874
:1005900000F0ACFF601CC4B2082CDFDB00241EE0BE
:1005A00007F0800028B101221146164800F09EFF96
:1005B00004E000220121134800F098FF7806070E9E
:1005C000002202210F4800F091FF012000F050FEB0
:1005D000012202210B4800F089FF601CC4B2082CE4
:1005E000DEDB01229102074800F080FF012000F0CD
:1005F0003FFE00224FF48061024800F077FFBDE823
:10060000F0810000000C01401CB500BF1948806952
:1006100040F008001749886100BF00BF08468069A4
:1006200040F00800886100BF00BF0846806940F0C4
:100630000800886100BF0220012100230A46CDE99D
:1006400000100D4800F05EFF0220012100230A4641
:10065000CDE900100146084800F054FF02200121B6
:1006600000230A46CDE900104102034800F04AFF8A
:100670001CBD000000100240000C014010B5FFF747
:100680000BFF2B4908602B4800680968084429497A
:10069000086029480078142814D1002026490870E1
:1006A00024480068152190FBF1F0244908600846B1
:1006B00000680A2190FBF1F02049086000201D49E4
:1006C000086004E01C480078401C1B4908701C4866
:1006D00000881C490968884224D1002018490880F4
:1006E000164800680A2190FBF1F01749088013486A
:1006F00000680A2190FBF1F201FB12001349088007
:10070000134811490988405C1249087010480F4984
:100710000988405C10490870084601780D48007847
:10072000FFF714FF06480088401C0549088010BDEB
:10073000040000200000002010000020080000201D
:100740002A000020380000202E0000202C0000206D
:1007500015000020130000201400002010B500F048
:100760002FFB082000F08AFB00F0EEFA082000F0D2
:1007700085FB00F039FB082000F080FB00F0F8FA60
:10078000082000F07BFB10BD1CB500BF114880693C
:1007900040F004000F49886100BF00BF084680692F
:1007A00040F00400886100BF0220012100230A46B6
:1007B000CDE900100421084800F0A4FE0220012128
:1007C00000230A46CDE900100146034800F09AFED6
:1007D0001CBD0000001002400008014010B5FFF7EA
:1007E000D3FF42F61E3000F049FBFFF7B7FF702041
:1007F00000F0D8FB00F082FAE12000F0D3FB00F01B
:100800007DFA082000F0CEFB00F078FA002000F01E
:10081000C9FB00F073FA00F03CFB4FF4FA7000F0F3
:1008200027FD2AE000F0D0F8642000F021FD42F618
:100830001E3000F023FBFFF791FF702000F0B2FBA9
:1008400000F05CFAE12000F0ADFB00F057FA082060
:1008500000F0A8FB00F052FA002000F0A3FB00F02B
:100860004DFA00F016FB601CC4B20A2C01DB00201C
:1008700010BD4FF4FA7000F0FBFC00F06DF800289A
:10088000D0D00120F4E770B586B005460020059071
:10089000049003900290019000900024002600F044
:1008A00079F84B2000F0E4FC00BF09E040F2E4508E
:1008B00000F0E4FA3046711C8EB2642800DB05E0DB
:1008C00000F057F800F080008028EFD000BFFFF75D
:1008D00045FF712000F066FB00F010FA00F038FBD5
:1008E000059000F095FA00F033FB049000F090FAC8
:1008F00000F02EFB039000F08BFA00F029FB029031
:1009000000F086FA00F024FB019000F081FA00F07C
:100910001FFB009000F097FA00F0BBFA9DF8100062
:10092000204304029DF80C00204304029DF80800B7
:10093000044324092C6000249DF80800204304028D
:100940009DF80400204304029DF800000443C4F312
:1009500013046C6006B070BD10B5002400F009F8F7
:10096000044604F06800082801D1012010BD0020D1
:10097000FCE710B5FFF7F2FE712000F013FB00F06A
:10098000BDF900F0E5FA044600F05DFA00F081FAE6
:10099000204610BD10B5FFF7E1FE702000F002FB0D
:1009A00000F0ACF9AC2000F0FDFA00F0A7F933201C
:1009B00000F0F8FA00F0A2F9002000F0F3FA00F0DD
:1009C0009DF900F066FA10BD10B5FFF7C7FE702064
:1009D00000F0E8FA00F092F9BA2000F0E3FA00F033
:1009E0008DF900F056FA10BD10B500F0E5F8044698
:1009F000A4B1012C0DD0022C06D0032C13D149F246
:100A00007C2000F073F913E046F2A81000F06EF9B4
:100A10000EE043F2D40000F069F909E04FF4FA70F7
:100A200000F064F904E04CF2503000F05FF900BFD0
:100A300000BF10BD2DE9F0474FF001090024FFF77A
:100A40002BFD484908800A21062000F031FB464969
:100A5000088008460088FFF7F5FB8246FFF7F7FBA2
:100A600007464FF06632414BFFF77AFB0546FFF72A
:100A700031FC3F4908603F480068FFF7E8FB054646
:100A80003D4A3E4BFFF7F6FB0BD23A480068FFF7B2
:100A9000DEFB0546384A3A4BFFF704FC01D203243B
:100AA00038E034480068FFF7D2FB05464FF0333298
:100AB000344BFFF7DFFB0BD22E480068FFF7C7FB74
:100AC00005462D4A2D4BFFF7EDFB01D2022421E014
:100AD00028480068FFF7BBFB05462B4A2B4BFFF766
:100AE000C9FB0CD223480068FFF7B1FB05464FF065
:100AF0003332244BFFF7D6FB01D201240AE01D4814
:100B00000068FFF7A4FB05461F4A204BFFF7CAFB0E
:100B100000D2002413480088A04204DA1C48007860
:100B200008B94FF001090F480088A04208D1012000
:100B3000174908700B480088164908804FF00009D3
:100B400013480078012809D112480088054909880E
:100B5000401A052802D100200D4908704846BDE81A
:100B6000F08700005A0000206000002066664A3FBF
:100B700068000020640000209A9999999999F93F9A
:100B80009999E93F33330340CDCCCCCCCCCC084051
:100B9000580000205C00002010B50648006820F0D6
:100BA0000F000449086047214CF24F3000F08EFBE3
:100BB00010BD0000040801402DE9F04700240A217F
:100BC000042000F075FA3E49088008460088FFF7C7
:100BD00039FB8246FFF73BFB07464FF06632394B45
:100BE000FFF7BEFA0546FFF775FB37490860FFF7C8
:100BF00021FF8146B9F1010F5BD133480068FFF74F
:100C000026FB0546314A324BFFF734FB01D2032461
:100C100050E02D480068FFF71AFB05462B4A2D4B84
:100C2000FFF728FB0BD228480068FFF710FB0546AA
:100C3000264A294BFFF736FB01D203243AE022482B
:100C40000068FFF704FB05464FF03332234BFFF7F4
:100C500011FB0BD21C480068FFF7F9FA05461B4A46
:100C60001C4BFFF71FFB01D2022423E0164800684B
:100C7000FFF7EDFA05461A4A1A4BFFF7FBFA0CD2BA
:100C800011480068FFF7E3FA05464FF03332134B83
:100C9000FFF708FB01D201240CE00B480068FFF7C6
:100CA000D6FA05460E4A0F4BFFF7FCFA02D2002493
:100CB00000E004240C4804702046BDE8F0870000E2
:100CC0005E00002066664A3F640000209A99999968
:100CD0009999C93F9999F93F9999E93F333303406D
:100CE000CDCCCCCCCCCC08406C0000204FF0804167
:100CF00048630149086070477000002010B5002467
:100D000000F036F800F048F8082000F0B7F800F0DE
:100D10001BF8082000F0B2F801E0601C84B2042146
:100D2000084800F0DBFB08B1642CF6DB642C01D131
:100D3000002010BD00F01CF8082000F09FF80120F2
:100D4000F7E70000000801401CB502200121002344
:100D50000A46CDE900100146044800F0D3FB012209
:100D60000221024800F0C2FB1CBD00000008014047
:100D70001CB50220012100230A46CDE900100146DE
:100D8000044800F0BFFB00220221024800F0AEFB45
:100D90001CBD0000000801401CB5002001210346D5
:100DA0000246CDE900100421044800F0ABFB00220C
:100DB0000421024800F09AFB1CBD0000000801401D
:100DC0001CB50220012100230A46CDE900100421B0
:100DD000044800F097FB01220421024800F086FB42
:100DE0001CBD0000000801401CB5022001210023A9
:100DF0000A46CDE900100421044800F083FB0022DC
:100E00000421024800F072FB1CBD000000080140F4
:100E100010B5FFF7ADFF082000F030F8FFF7E4FF52
:100E2000082000F02BF8FFF78FFF082000F026F8CD
:100E3000FFF79EFF082000F021F8FFF7ADFF082024
:100E400000F01CF810BD10B5FFF792FF082000F06D
:100E500015F8FFF7B5FF082000F010F8FFF774FF52
:100E6000082000F00BF8FFF783FF082000F006F8D9
:100E7000FFF7BAFF082000F001F810BD10B50446D6
:100E8000A41E03E00120FFF754FB641E002CF9D1DF
:100E900010BD10B5FFF7A8FF0820FFF7EFFFFFF721
:100EA00053FF0820FFF7EAFFFFF78AFF0820FFF74C
:100EB000E5FF10BD044800680348006820F0010009
:100EC0000149086070470000100400401D4909688E
:100ED00001F0200111B31B49091D0968C8B21A4964
:100EE000098801F40041C9B91749098801F4804112
:100EF00061B10A2803D00021134A118020E0124971
:100F0000098841F40041104A118019E00D2806D1EA
:100F10000D49098841F480410B4A118010E00A49CB
:100F20000988C1F30D01094A505407490988491C31
:100F3000054A118011460988C72901DD0021118069
:100F40007047000000380140440000207400002079
:100F500070B50024FFF70CFFFFF71EFF0820FFF716
:100F60008DFF002513E0FFF7EFFEFFF7C3FA002621
:100F700004210B4800F0B2FA00B1012646EA440011
:100F8000C4B2FFF7F5FEFFF7B5FA681CC5B2082D2D
:100F9000E9DBFFF701FF0820FFF770FF204670BD77
:100FA000000801402DE9F04104462546802700262F
:100FB00013E0FFF7DDFEFFF7AEFA07EA050010B118
:100FC000FFF7FEFE01E0FFF70FFFFFF7BDFEFFF7A3
:100FD000A2FA6806050E701CC6B2082EE9DBFFF700
:100FE000C7FE0820FFF74AFFFFF7D6FE0820FFF7ED
:100FF00045FFBDE8F08102E008C8121F08C1002AC1
:10100000FAD170477047002001E001C1121F002A89
:10101000FBD1704730B50A290EDA036901EB4105AF
:101020000724AC40A3430361036901EB4105072496
:10103000AC402343036111E0C368A1F10A0404EB4F
:1010400044050724AC40A343C360C368A1F10A046C
:1010500004EB44050724AC402343C36030BD0000CB
:1010600010B50446072221461048FFF7D3FF0F486A
:101070003430006820F01F000C4934310860084605
:1010800000682043086009480830006840F4800088
:1010900006490831086000BF0448006800F00200FB
:1010A0000028F9D001484C30006810BD00240140F0
:1010B0002DE9F04107460C460025002608E0384699
:1010C000FFF7CEFF0544052000F0D2F8701CC6B231
:1010D000A642F4DBB5FBF4F0BDE8F0811CB500BF1F
:1010E0005548806940F004005349886100BF00BF43
:1010F0000846806940F40070886100BF00BF084660
:10110000806940F00400886100BF00BF0846806924
:1011100040F00400886100BF0120009000230322FA
:1011200010210190454800F0EDF9012000900023C6
:10113000032240210190414800F0E4F902200121FE
:1011400000230A46CDE9001020213C4800F0DAF9DE
:1011500001222021394800F0C9F93748C06840F41D
:10116000C0603549C8600846C06820F4C060C860E7
:101170000846406820F4404048600846406840F413
:10118000004048602E48006820F470202C49086018
:101190000846006808600846006820F4807008600F
:1011A000081D006820F00200091D0860084600685C
:1011B00020F4602008600846006840F46020086061
:1011C0000846006840F4801008600846006820F473
:1011D000006008601A482830006820F47000184940
:1011E000283108600846006808601548001D00683E
:1011F00040F001001249091D08600846006840F0EF
:101200000800086000BF0E48001D006800F00800DC
:101210000028F8D10A48001D006840F00400084981
:10122000091D086000BF0648001D006800F00400AA
:101230000028F8D11CBD0000001002400008014049
:10124000042401404FF0E021096941F004014FF00E
:10125000E0221161054908601146096941F0010168
:1012600011616FF070415161704700003C00002037
:1012700010B504464FF47A7104FB01F000F002F857
:1012800010BD000070B5034600224FF0E0267569DE
:101290000D4E366803FB06F44FF0E026B16910E00E
:1012A0004FF0E026B06988420BD0884202D20E1A75
:1012B000324402E02E1A0E4432440146A24200D3C8
:1012C00000E0EDE700BF70BD3C0000207CB50546A6
:1012D0000E46012400BF3848806940F004003649BA
:1012E000886100BF00BF0846C06940F00100C861C6
:1012F00000BF0120032100230222CDE90010014696
:101300002E4800F0FFF8A007C5628662406C40F4EA
:101310000040A1074864022C14DC08468069611E65
:10132000C900091D06228A401043A10788610846AA
:101330008069611EC900C91C01228A401043A107AF
:10134000886118E0042C16DC4FF08040C069E11E73
:10135000C900091D06228A4010434FF08041C86130
:101360000846C069E11EC900C91C01228A40104319
:101370004FF08041C8614FF08040006A611E8A00D2
:101380000121914008434FF0804108620846006AFD
:10139000611E8900491C01228A4010434FF08041A0
:1013A00008620846006840F080000860084600684F
:1013B00040F0010008607CBD0010024000080140C0
:1013C0001CB500BF0A48806940F0100008498861D8
:1013D00000BF012000900023024641030190054810
:1013E00000F090F801225103024800F07FF81CBD84
:1013F0000010024000100140092000F001F9FFF741
:10140000DFFF4820FFF71EFFFFF7FEF8FFF766FE3D
:10141000FFF7C2FB09E000224FF40051034800F03F
:1014200065F8FFF72BF9FFF7DFFAF4E7001001404A
:1014300010B5024600210020264B1B6843F4803380
:10144000244C23600AE000BF224B1B6803F40033E6
:101450001BB1B1F5004F00D904E0491C4FF6F07301
:101460009942F0D300BF4FF6F073994201D30120A7
:101470002FE04FF48063174C6360921E23465B6835
:1014800043EA8243636023465B6843F480336360CE
:101490001023114C236023461B6843F00203236092
:1014A0000C4B1B6843F080730A4C236000BF094B50
:1014B0001B685B0E002BFAD0064B5B6843F00203FF
:1014C000044C636000BF034B5B68C3F38103022BD2
:1014D000F9D110BD00100240002002400246906881
:1014E000084008B1012070470020FCE702F001032A
:1014F0001BB103690B43036103E0036943EA014342
:10150000036170472DE9F04F0E461D46DDE909C421
:10151000002100278846002300BF64E04FF0010946
:1015200009FA01F706EA0708B8455BD10023012A4A
:1015300001D0022A0AD10CF0030305F0010943EAA5
:101540008903A2F1010943EAC90318E0BAB90CB949
:10155000042314E00823D0F80C904FF0010A0AFA93
:1015600001FA29EA0A09C0F80C90D0F80CA004F09E
:10157000010909FA01F94AEA090AC0F80CA0072989
:1015800016D8D0F800904FEA810B4FF00F0A0AFAF4
:101590000BFA29EA0A09C0F80090D0F800904FEA47
:1015A000810A03FA0AFA49EA0A09C0F8009019E028
:1015B000D0F80490A1F1080A4FEA8A0B4FF00F0A05
:1015C0000AFA0BFA29EA0A09C0F80490D0F8049044
:1015D000A1F1080A4FEA8A0A03FA0AFA49EA0A0953
:1015E000C0F80490491C102998D3BDE8F08F000082
:1015F0004A0A52020243014B1A60704708ED00E0AC
:1016000010B50446002017490861C86014204861DD
:1016100000208861C8610846006840F00100086049
:1016200008464068104908400E494860084600686E
:101630000E4908400B4908600846006820F48020E5
:1016400008600846406820F4FE0048604FF41F0020
:1016500088602046FFF7ECFE00214FF00060FFF7A6
:10166000C7FF10BD001002400000FFF8FFFFF6FEAC
:10167000901600080000002074000000F60F00081B
:101680000417000874000020CC04000006100008B5
:10169000000000000000000000000000000000004A
:1016A0000000000000C0F9A4B0999282F88090FF79
:1016B000009096AFC089C78EC17F00000000000077
:1016C00000000000000000006400000000000000B6
:1016D000000000000000000000000000000000000A
:1016E00000000000000000000000000000000000FA
:1016F00000000000000000000000000000000000EA
:0417000000000000E5
:0400000508000131BD
:00000001FF
