:020000040800F2
:100000004005002045010008490100084B01000897
:100010004D0100084F0100085101000800000000D8
:100020000000000000000000000000005301000874
:1000300055010008000000005701000859010008A0
:100040005B0100085B0100085B0100085B01000820
:100050005B0100085B0100085B0100085B01000810
:100060005B0100085B0100085B0100085B01000800
:100070005B0100085B0100085B0100085B010008F0
:100080005B0100085B0100085B0100085B010008E0
:100090005B0100085B0100085B0100085B010008D0
:1000A0005B0100085B0100085B0100085B010008C0
:1000B0005B0100085D0E00085B0100085B010008A1
:1000C0005B0100085B0100085B0100085B010008A0
:1000D0005B010008750E00085B0100085B01000869
:1000E0005B0100085B0100085B0100085B01000880
:1000F0005B0100085B0100085B0100085B01000870
:100100005B0100085B0100085B0100085B0100085F
:100110005B0100085B0100085B0100085B0100084F
:100120005B0100085B0100085B0100085B0100083F
:10013000DFF80CD000F098F900480047E113000800
:100140004005002005480047FEE7FEE7FEE7FEE722
:10015000FEE7FEE7FEE7FEE7FEE7FEE73101000807
:100160002DE9FE4F81EA030404F0004421F0004130
:1001700000944FF0000B23F0004350EA01045ED0DE
:1001800052EA03045BD0C3F30A54C1F30A552C446A
:10019000A4F2F3340194A0FB0254C1F3130141F41F
:1001A0008011C3F3130343F4801301FB024400FBEB
:1001B000034E840A970A44EA815447EA8357A4FB12
:1001C000076802958D0A05FB07854FEA932C04FB0F
:1001D0000C542705029D4FEA065847EA1637B5EB3F
:1001E00008056EEB070C870E920E47EA811742EA6C
:1001F0008312A7FB0201B6EB0B0164EB00042B0D8D
:1002000043EA0C335E1844EB1C50DA465146E7FBD8
:100210000201C5F313044FEA0B3343EA14534FEAC8
:100220000432019C43EA0603A4F10C040294009CEE
:10023000CDE900B400F0CAF803B0BDE8F08F0020AB
:100240000146F9E796230022114600F082B800F03B
:10025000004230F000400AD0C10D01F56071C0F3DA
:10026000160042EA0151C2084007114370470020BE
:100270000146704730B5041E71F1000404DB4FF0F5
:100280000044404264EB0101141E73F1000405DBDD
:100290001C464FF00043524263EB04038B4208BFFD
:1002A000824230BD30B5041E71F1000404DB4FF012
:1002B0000044404264EB0101141E73F1000405DBAD
:1002C0001C464FF00043524263EB0403994208BFBF
:1002D000904230BD01F0004330B421F0004150EABB
:1002E000010206D00A0DA2F56072C1F31301002AC3
:1002F00002DC30BC00207047440F44EAC104C10056
:10030000E01830BC00EBC25000F01AB8002801DB46
:10031000C0F10040002901DBC1F100418842704773
:10032000202A04DB203A21FA02F00021704721FA4A
:1003300002F3D040C2F120029140084319467047B1
:100340000029A8BF7047401C490008BF20F00100E9
:10035000704710B4B0FA80FC00FA0CF050EA0104C7
:1003600004BF10BC704749B1CCF1200421FA04F459
:1003700011FA0CF118BF012121430843A3EB0C0132
:10038000CB1D4FEA00614FEA102042BF002010BC95
:10039000704700EBC35010440029A4BF10BC704745
:1003A000401C490008BF20F0010010BC704710B588
:1003B000141E73F1000408DA401C41F10001921888
:1003C0005B411A4301D120F0010010BD2DE9F04D31
:1003D00092469B4611B1B1FA81F202E0B0FA80F286
:1003E0002032904600F052F804460F4640EA0A00D8
:1003F00041EA0B0153465A46084313D0114653EACB
:10040000010019D0C8F140025046FFF789FF0546A8
:100410000E4650465946424600F038F8084305D08B
:10042000012004E020463946BDE8F08D0020054358
:1004300046EAE0762C4337430A986305E40AA0EBCA
:1004400008000022FD0A44EA47540A3002D5002081
:100450000146E9E7010510196941DDE90845001980
:100460006941BDE8F04DA2E7064C074D06E0E068A3
:1004700040F0010394E8070098471034AC42F6D3EB
:10048000FFF75AFEB8160008D8160008202A04DB29
:10049000203A00FA02F1002070479140C2F1200397
:1004A00020FA03F3194390407047000010B504E0B0
:1004B00000F09EF91E2000F0CFFE00F057FA002851
:1004C000F6D00E4800F0E9F90C4800684FF47A7154
:1004D0004843000D0A49086008484068C82148435D
:1004E00000EB8000C0F355204FF4FA71C1EB90206F
:1004F000044908600248006880B210BD4C0000202A
:10050000540000205800002000B5012000F01BF826
:10051000012000F018F8012000F015F8012000F08B
:1005200012F8012000F00FF800BD00B5012000F026
:100530000AF8012000F007F8012000F004F801207B
:1005400000F001F800BD014604E0002000E0401C7E
:100550000228FCD30A1EA1F10101F6D17047000068
:100560002DE9F04105460E462F46B04600241DE019
:1005700008F0800028B101221146274800F0DAFF78
:1005800004E000220121244800F0D4FF4FEA486033
:100590004FEA1068002202211F4800F0CBFF012221
:1005A00002211D4800F0C6FF601CC4B2082CDFDB2E
:1005B00000241EE007F0800028B1012211461648F1
:1005C00000F0B8FF04E000220121134800F0B2FF60
:1005D0007806070E002202210F4800F0ABFF012031
:1005E00000F03AFE012202210B4800F0A3FF601C3C
:1005F000C4B2082CDEDB01229102074800F09AFF0A
:10060000012000F029FE00224FF48061024800F032
:1006100091FFBDE8F0810000000C01401CB500BF57
:100620001948806940F008001749886100BF00BF81
:100630000846806940F00800886100BF00BF084696
:10064000806940F00800886100BF0220012100237A
:100650000A46CDE900100D4800F078FF0220012184
:1006600000230A46CDE900100146084800F06EFF5D
:100670000220012100230A46CDE90010410203486F
:1006800000F064FF1CBD000000100240000C01409F
:1006900010B5FFF70BFF2B4908602B48006809686D
:1006A00008442949086029480078142814D10020FA
:1006B0002649087024480068152190FBF1F0244970
:1006C0000860084600680A2190FBF1F020490860A4
:1006D00000201D49086004E01C480078401C1B49AC
:1006E00008701C4800881C49096888421ED10020F7
:1006F00018490880164800680A2190FBF1F0174954
:100700000880134800680A2190FBF1F201FB1200F7
:1007100013490880134811490988405C1249087040
:1007200010480F490988405C104908700F4801784B
:100730000D480078FFF714FF06480088401C054963
:10074000088010BD040000200000002010000020E0
:10075000080000202A000020380000202E00002081
:100760002C000020150000201300002014000020A1
:1007700010B500F0F9FA082000F054FB00F0B8FAC8
:10078000082000F04FFB00F003FB082000F04AFBBC
:1007900000F0C2FA082000F045FB10BD1CB500BFF8
:1007A0001148806940F004000F49886100BF00BF14
:1007B0000846806940F00400886100BF02200121E2
:1007C00000230A46CDE900100421084800F0BEFECF
:1007D0000220012100230A46CDE90010014603480A
:1007E00000F0B4FE1CBD00000010024000080140F3
:1007F00010B5FFF7D3FF42F61E3000F013FBFFF7F2
:10080000B7FF702000F0A2FB00F04CFAE12000F0EE
:100810009DFB00F047FA082000F098FB00F042FA38
:10082000002000F093FB00F03DFA00F006FB4FF4CF
:10083000FA7000F011FD2AE000F0D0F8642000F01A
:100840000BFD42F61E3000F0EDFAFFF791FF70202D
:1008500000F07CFB00F026FAE12000F077FB00F0CE
:1008600021FA082000F072FB00F01CFA002000F0D2
:100870006DFB00F017FA00F0E0FA601CC4B20A2C1D
:1008800001DB002010BD4FF4FA7000F0E5FC00F031
:100890006DF80028D0D00120F4E770B586B0054689
:1008A0000020059004900390029001900090002495
:1008B000002600F079F84B2000F0CEFC00BF09E0E4
:1008C00040F2E45000F0AEFA3046711C8EB264285B
:1008D00000DB05E000F057F800F080008028EFD042
:1008E00000BFFFF745FF712000F030FB00F0DAF9A0
:1008F00000F002FB059000F05FFA00F0FDFA0490B2
:1009000000F05AFA00F0F8FA039000F055FA00F0FF
:10091000F3FA029000F050FA00F0EEFA019000F0C5
:100920004BFA00F0E9FA009000F061FA00F085FA65
:100930009DF81000204304029DF80C00204304029F
:100940009DF80800044324092C6000249DF8080049
:10095000204304029DF80400204304029DF8000097
:100960000443C4F313046C6006B070BD10B50024DA
:1009700000F009F8044604F06800082801D10120BD
:1009800010BD0020FCE710B5FFF7F2FE712000F06B
:10099000DDFA00F087F900F0AFFA044600F027FA1C
:1009A00000F04BFA204610BD10B5FFF7E1FE7020B5
:1009B00000F0CCFA00F076F9AC2000F0C7FA00F0B5
:1009C00071F9332000F0C2FA00F06CF9002000F059
:1009D000BDFA00F067F900F030FA10BD10B5FFF76E
:1009E000C7FE702000F0B2FA00F05CF9BA2000F007
:1009F000ADFA00F057F900F020FA10BD10B500F084
:100A0000B5F80446A4B1012C0DD0022C06D0032C5D
:100A100013D14FF4FA7000F011F90EE043F2D40054
:100A200000F00CF909E046F2A81000F007F904E024
:100A30004CF2503000F002F900BF00BF10BD0000C2
:100A40002DE9F0474FF001090024FFF72FFD37494A
:100A500008800A21062000F0FFFA35490880084680
:100A60000088FFF7EFFB8246FFF7F1FB07464FF0E8
:100A70006632304BFFF774FB0546FFF72BFC2E491F
:100A8000086008460068FFF7E2FB05464FF0333286
:100A90002A4BFFF7EFFB02D84FF4167423E02648E9
:100AA0000068FFF7D4FB0546254A264BFFF7E2FB1B
:100AB0000DD821480068FFF7CAFB05464FF03332D6
:100AC0001E4BFFF7EFFB02D24FF42F740BE01A48D6
:100AD0000068FFF7BCFB0546194A1A4BFFF7E2FB1B
:100AE00001D24FF4487411480088A04209DA164830
:100AF0000078012805D10020134908704FF0010942
:100B000012E00A480088A0420EDBA4F13200074937
:100B10000988884206DD01200B4908708146484655
:100B2000BDE8F0874FF000094846F9E75E00002075
:100B30006400002066664A3F6C0000203333EB3FC0
:100B40009A999999999901405C00002010B506483E
:100B5000006820F00F000449086047214CF24F3034
:100B600000F0A8FB10BD0000040801402DE9F05F73
:100B700000240A21042000F06FFA2A490880084660
:100B80000088FFF75FFB8346FFF761FB07464FF0E6
:100B90006632254BFFF7E4FA0546FFF79BFB234936
:100BA0000860FFF74DFF824600F04CF88146BAF12D
:100BB000010F32D1B9F1010F2FD11C480068FFF7A6
:100BC00046FB05464FF03332194BFFF753FB01D874
:100BD000032423E015480068FFF739FB0546154A52
:100BE000154BFFF747FB0CD810480068FFF72FFBA9
:100BF00005464FF033320E4BFFF754FB01D202246F
:100C00000CE00A480068FFF722FB0546094A0A4B38
:100C1000FFF748FB02D2012400E000242046BDE893
:100C2000F09F00006200002066664A3F68000020D6
:100C30003333EB3F9A999999999901404FF080414C
:100C4000486370472DE9F04700240A21072000F08F
:100C500003FA1049088008460088FFF7F3FA814636
:100C6000FFF7F5FA07464FF066320B4BFFF778FABD
:100C70000546FFF72FFB0949086009490748006846
:100C8000FFF744FB01D8012400E000242046BDE822
:100C9000F08700006600002066664A3F7000002072
:100CA0000000404010B5002400F036F800F048F88D
:100CB000082000F0B7F800F01BF8082000F0B2F8A8
:100CC00001E0601C84B20421084800F02BFC08B14C
:100CD000642CF6DB642C01D1002010BD00F01CF860
:100CE000082000F09FF80120F7E70000000801400D
:100CF0001CB50220012100230A46CDE9001001465F
:100D0000044800F023FC01220221024800F012FCFA
:100D10001CBD0000000801401CB502200121002379
:100D20000A46CDE900100146044800F00FFC0022FD
:100D30000221024800F0FEFB1CBD0000000801403B
:100D40001CB50020012103460246CDE90010042114
:100D5000044800F0FBFB00220421024800F0EAFBFB
:100D60001CBD0000000801401CB502200121002329
:100D70000A46CDE900100421044800F0E7FB0122F7
:100D80000421024800F0D6FB1CBD00000008014011
:100D90001CB50220012100230A46CDE900100421E0
:100DA000044800F0D3FB00220421024800F0C2FBFB
:100DB0001CBD00000008014010B5FFF7ADFF082082
:100DC00000F030F8FFF7E4FF082000F02BF8FFF701
:100DD0008FFF082000F026F8FFF79EFF082000F0A4
:100DE00021F8FFF7ADFF082000F01CF810BD10B58A
:100DF000FFF792FF082000F015F8FFF7B5FF082075
:100E000000F010F8FFF774FF082000F00BF8FFF770
:100E100083FF082000F006F8FFF7BAFF082000F073
:100E200001F810BD10B50446A41E03E00120FFF731
:100E30008AFB641E002CF9D110BD10B5FFF7A8FF86
:100E40000820FFF7EFFFFFF753FF0820FFF7EAFF47
:100E5000FFF78AFF0820FFF7E5FF10BD0448006890
:100E60000348006820F00100014908607047000055
:100E7000100400401D49096801F0200111B31B490D
:100E8000091D0968C8B21A49098801F40041C9B9A5
:100E90001749098801F4804161B10A2803D0002173
:100EA000134A118020E01249098841F40041104A98
:100EB000118019E00D2806D10D49098841F48041BF
:100EC0000B4A118010E00A490988C1F30D01094A53
:100ED000505407490988491C054A11801146098860
:100EE000C72901DD00211180704700000038014052
:100EF000480000207400002070B50024FFF70CFFAC
:100F0000FFF71EFF0820FFF78DFF002513E0FFF716
:100F1000EFFEFFF7F9FA002604210B4800F002FB70
:100F200000B1012646EA4400C4B2FFF7F5FEFFF720
:100F3000EBFA681CC5B2082DE9DBFFF701FF0820BA
:100F4000FFF770FF204670BD000801402DE9F04119
:100F5000044625468027002613E0FFF7DDFEFFF755
:100F6000E4FA07EA050010B1FFF7FEFE01E0FFF723
:100F70000FFFFFF7BDFEFFF7D8FA6806050E701CDD
:100F8000C6B2082EE9DBFFF7C7FE0820FFF74AFFCD
:100F9000FFF7D6FE0820FFF745FFBDE8F08102E02D
:100FA00008C8121F08C1002AFAD1704770470020F4
:100FB00001E001C1121F002AFBD1704730B50A2998
:100FC0000EDA036901EB41050724AC40A34303613A
:100FD000036901EB41050724AC402343036111E0A1
:100FE000C368A1F10A0404EB44050724AC40A34301
:100FF000C360C368A1F10A0404EB44050724AC40B4
:101000002343C36030BD000010B5044607222146CB
:101010001048FFF7D3FF0F483430006820F01F005E
:101020000C493431086008460068204308600948CC
:101030000830006840F4800006490831086000BFAD
:101040000448006800F002000028F9D001484C3044
:10105000006810BD002401402DE9F04107460C4610
:101060000025002608E03846FFF7CEFF054405209E
:1010700000F0F2F8701CC6B2A642F4DBB5FBF4F047
:10108000BDE8F0811CB500BF6548806940F00400F0
:101090006349886100BF00BF0846806940F4007062
:1010A000886100BF00BF0846806940F00400886185
:1010B00000BF00BF0846806940F00400886100BF9F
:1010C00000BF0846806940F00400886100BF00BF8F
:1010D0000846806940F00400886100BF012000904C
:1010E00000230322102101904E4800F02FFA012026
:1010F000009000230322402101904A4800F026FA84
:10110000012000900023032280210190454800F037
:101110001DFA01200090002303220821019041487C
:1011200000F014FA0220012100230A46CDE9001044
:1011300020213C4800F00AFA01222021394800F021
:10114000F9F93748C06840F4C0603549C8600846BE
:10115000C06820F4C060C8600846406820F4404081
:1011600048600846406840F4004048602E480068E7
:1011700020F470202C490860084600680860084682
:10118000006820F480700860081D006820F00200EC
:10119000091D08600846006820F4602008600846C1
:1011A000006840F4602008600846006840F4801041
:1011B00008600846006820F4006008601A4828307B
:1011C000006820F47000184928310860084600685B
:1011D00008601548001D006840F001001249091D13
:1011E00008600846006840F00800086000BF0E482C
:1011F000001D006800F008000028F8D10A48001D12
:10120000006840F004000849091D086000BF064856
:10121000001D006800F004000028F8D11CBD00008B
:101220000010024000080140042401404FF0E0217A
:10123000096941F004014FF0E0221161054908609D
:101240001146096941F0010111616FF0704151616E
:10125000704700004000002010B504464FF47A713A
:1012600004FB01F000F002F810BD000070B5034669
:1012700000224FF0E02675690D4E366803FB06F438
:101280004FF0E026B16910E04FF0E026B0698842E7
:101290000BD0884202D20E1A324402E02E1A0E44BB
:1012A00032440146A24200D300E0EDE700BF70BD2A
:1012B000400000207CB505460E46012400BF38489A
:1012C000806940F004003649886100BF00BF0846CD
:1012D000C06940F00100C86100BF01200321002364
:1012E0000222CDE9001001462E4800F02FF9A00798
:1012F000C5628662406C40F40040A1074864022C3D
:1013000014DC08468069611EC900091D06228A4056
:101310001043A107886108468069611EC900C91C85
:1013200001228A401043A107886118E0042C16DCD2
:101330004FF08040C069E11EC900091D06228A40A5
:1013400010434FF08041C8610846C069E11EC900E2
:10135000C91C01228A4010434FF08041C8614FF000
:101360008040006A611E8A000121914008434FF0CD
:10137000804108620846006A611E8900491C0122FA
:101380008A4010434FF0804108620846006840F0F0
:10139000800008600846006840F0010008607CBDDD
:1013A00000100240000801401CB500BF0A488069D7
:1013B00040F010000849886100BF01200090002320
:1013C000024641030190054800F0C0F80122510394
:1013D000024800F0AFF81CBD0010024000100140B0
:1013E000092000F031F9FFF7DFFF4820FFF71EFF6B
:1013F000FFF714F9FFF746FEFFF7A8FB30E00A21DC
:101400000320FFF729FE1749088008460088FEF7E9
:1014100019FF8046FEF71BFF06464FF06632124B5F
:10142000FEF79EFE0446FEF755FF104908600022B5
:101430004FF400510E4800F07DF80C480068FEF7AC
:1014400006FF044600220B4BFEF72CFF04D2FF21BF
:101450000846FFF785F801E0FFF71AF9FFF7CEFA23
:10146000CDE700003200002066664A3F3C000020C5
:10147000001001400000084010B502460021002085
:10148000264B1B6843F48033244C23600AE000BFE2
:10149000224B1B6803F400331BB1B1F5004F00D998
:1014A00004E0491C4FF6F0739942F0D300BF4FF6A9
:1014B000F073994201D301202FE04FF48063174C61
:1014C0006360921E23465B6843EA8243636023465F
:1014D0005B6843F4803363601023114C2360234620
:1014E0001B6843F0020323600C4B1B6843F08073BE
:1014F0000A4C236000BF094B1B685B0E002BFAD01F
:10150000064B5B6843F00203044C636000BF034B6F
:101510005B68C3F38103022BF9D110BD00100240B8
:101520000020024002469068084008B10120704740
:101530000020FCE702F001031BB103690B430361C8
:1015400003E0036943EA0143036170472DE9F04F6B
:101550000E461D46DDE909C4002100278846002308
:1015600000BF64E04FF0010909FA01F706EA070835
:10157000B8455BD10023012A01D0022A0AD10CF020
:10158000030305F0010943EA8903A2F1010943EAD3
:10159000C90318E0BAB90CB9042314E00823D0F841
:1015A0000C904FF0010A0AFA01FA29EA0A09C0F878
:1015B0000C90D0F80CA004F0010909FA01F94AEAEC
:1015C000090AC0F80CA0072916D8D0F800904FEAF5
:1015D000810B4FF00F0A0AFA0BFA29EA0A09C0F840
:1015E0000090D0F800904FEA810A03FA0AFA49EA1B
:1015F0000A09C0F8009019E0D0F80490A1F1080A97
:101600004FEA8A0B4FF00F0A0AFA0BFA29EA0A0985
:10161000C0F80490D0F80490A1F1080A4FEA8A0AB1
:1016200003FA0AFA49EA0A09C0F80490491C102989
:1016300098D3BDE8F08F00004A0A52020243014BE2
:101640001A60704708ED00E010B504460020174905
:101650000861C8601420486100208861C86108469C
:10166000006840F0010008600846406810490840E2
:101670000E494860084600680E4908400B4908605A
:101680000846006820F4802008600846406820F47E
:10169000FE0048604FF41F0088602046FFF7ECFE14
:1016A00000214FF00060FFF7C7FF10BD001002409F
:1016B0000000FFF8FFFFF6FED8160008000000202B
:1016C000740000009E0F00084C17000874000020F2
:1016D000CC040000AE0F0008000000000000000075
:1016E000000000000000000000000089F9C0F9A41B
:1016F000B0999282F88090FF009096AFC089C78E13
:10170000C17F000000000000000000000000000099
:1017100019000000000000000000000000000000B0
:1017200000000000000000000000000000000000B9
:1017300000000000000000000000000000000000A9
:0C1740000000000000000000000000009D
:0400000508000131BD
:00000001FF
